:1000000017C03BC03AC011C138C037C036C035C078
:1000100034C033C032C07EC330C06DC32EC02DC0CB
:100020002CC02BC02AC09F03B903C503CC03F10326
:1000300011241FBECFE5D4E0DEBFCDBF10E0A0E6A7
:10004000B0E0E8E5F8E002C005900D92AA37B107EC
:10005000D9F720E0AAE7B0E001C01D92AB3AB207A1
:10006000E1F710E0C8E1D0E003C02197FE01ECD336
:10007000C331D107D1F760D3EDC3C2CF64E870E0DC
:1000800080E890E0EAC180918400853509F46BC076
:1000900070F5863409F446C0E0F4803330F08A33DA
:1000A00008F46CC0823409F445C08091830081302B
:1000B00009F06EC0809182008F5F8093820084314E
:1000C00028F08DE790E03ED11092820010928400DB
:1000D00008958235E1F18335E1F18C3431F741E067
:1000E000609181008CE790E06FD143E02AC08137B6
:1000F00009F44CC048F4873571F1C0F18835A9F690
:1001000081E080938300D1CF8637A1F128F4853731
:1001100061F68DE790E025C0873709F1883729F629
:1001200082E0EFCF41E0609181008CE790E04CD11C
:1001300041E007C042E0609181008CE790E044D14B
:1001400042E0609181008BE790E03ED1AECF43E08A
:10015000EACF43E0C5CF8EE790E0D6D0A6CF8EE7BA
:1001600090E0E1D0A2CF8DE790E0F7CF8FE790E06D
:10017000FAD09BCF8FE790E0FAD097CF97E1899F95
:10018000802D11248055809381008FCF8FEFFBCF7E
:10019000823009F09BCF8DE790E0C5D010928200AD
:1001A0001092830093CF85B7806885BF08954091F2
:1001B000760050917700609178008AE790E019D03E
:1001C0004091730050917400609175008AE790E04F
:1001D00010D08AE790E01FD088E181BD8AE081BD20
:1001E000A8958895FDCF88E085BD660F660F63BD35
:1001F000089580918900282F30E0F901EE0FFF1F4C
:10020000E20FF31FE657FF4F4083518362838F5FF6
:100210008093890008958FB780688FBF89B7806801
:1002200089BF85B5876085BD08951F920F920FB66F
:100230000F9211242F933F934F935F936F937F936C
:100240008F939F93AF93BF93EF93FF93609185003C
:100250007091860080918700909188006F5F7F4F3A
:100260008F4F9F4F60938500709386008093870027
:100270009093880020918900223031F520918C00E4
:1002800030E050E040E0BED2672B682B692B29F4A8
:10029000E0918A00F0918B00099520918F0030E069
:1002A00050E040E060918500709186008091870069
:1002B00090918800A7D2672B682B692B29F4E091D5
:1002C0008D00F0918E000995FF91EF91BF91AF9154
:1002D0009F918F917F916F915F914F913F912F915E
:1002E0000F900FBE0F901F901895FC016083613036
:1002F00019F0623029F0089560E082E990E0B3C01F
:1003000060E080E990E0FBCFFC018081813019F052
:10031000823029F0089561E082E990E0FDC061E05B
:1003200080E990E0FBCFFC018081813019F08230C0
:1003300029F0089560E082E990E0EEC060E080E995
:1003400090E0FBCFFC018081813019F0823021F0F8
:10035000089582E990E012C180E990E0FCCF60E06E
:1003600084E990E080C061E084E990E0D5C060E07D
:1003700084E990E0D1C0FC016083613019F0623003
:1003800091F0089560E082EA90E06DD060E08EE93F
:1003900090E069D060E08CE990E065D040E062E0F8
:1003A00087E990E047C160E080EA90E05CD060E0DF
:1003B0008AE990E058D060E088E990E054D040E0CD
:1003C00062E086E990E0EECFCF93C62FFC018081FA
:1003D000813021F08230F1F0CF910895423059F010
:1003E000433091F061E0413081F04C2F62E087E9C9
:1003F00090E0CF911FC160E08EE990E08DD061E088
:100400008CE990E089D0F1CF60E08EE990E084D073
:1004100060E0F6CF423051F0433089F061E0413086
:1004200079F04C2F62E086E990E0E3CF60E08AE962
:1004300090E072D061E088E990E06ED0F2CF60E0A9
:100440008AE990E069D060E0F6CF61E086EA90E06A
:100450000AD060E084EA90E006C088EA90E032C109
:1004600088EA90E03DC1FC016130D1F018F06230C3
:1004700059F10895A081B0E0AA0FBB1FA459BF4F46
:100480000D90BC91A02D218181E090E0AC0102C0D3
:10049000440F551F2A95E2F78C91842B8C93089575
:1004A000A081B0E0AA0FBB1FA459BF4F0D90BC9113
:1004B000A02D218181E090E001C0880F2A95EAF704
:1004C00080959C918923EACFA081B0E0AA0FBB1F41
:1004D000A459BF4F0D90BC91A02D218181E090E0E7
:1004E000AC0102C0440F551F2A95E2F7342F309516
:1004F0002C9123232C93A081B0E0AA0FBB1FAA59F3
:10050000BF4F0D90BC91A02D218101C0880F2A956D
:10051000EAF79C91892BC2CFDC01662319F0613088
:10052000B9F00895EC91F0E0EE0FFF1FEA59FF4F8C
:100530000190F081E02D11962C9181E090E001C0B6
:10054000880F2A95EAF78095908189238083089502
:10055000EC91F0E0EE0FFF1FEA59FF4F0190F081A0
:10056000E02D11962C9181E090E0AC0102C0440F87
:10057000551F2A95E2F78081842BE8CFDC01EC91AE
:10058000F0E0EE0FFF1FEA59FF4F0190F081E02DE0
:1005900011962C9181E090E0AC0102C0440F551FF0
:1005A0002A95E2F78081842780830895DC01EC910D
:1005B000F0E0EE0FFF1FE05AFF4F0190F081E02DB9
:1005C000208130E011968C9102C0359527958A954F
:1005D000E2F720FF04C081E0FB0180830895DB0186
:1005E0001C920895FC016083623091F06330F1F059
:1005F0006130F9F48EB59FB59F739FBD8EBD8EB5EA
:100600009FB5826091689FBD8EBD1BBC1ABC0895CA
:100610008EB59FB59F7C9FBD8EBD8EB59FB5826008
:1006200091629FBD8EBD19BC18BC089582E685BD40
:1006300013BC0895FC018081823091F08330F1F089
:10064000813019F58EB59FB5887F9FBD8EBD8EB563
:100650009FB5862B9FBD8EBD50E05BBD4ABD089502
:100660008EB59FB5887F9FBD8EBD8EB59FB5862BFD
:100670009FBD8EBD50E059BD48BD089585B5887FAA
:1006800085BD85B5682B65BD43BD089548614AB9F0
:1006900086E880BD69B970BD08955D9B04C06CB9E2
:1006A0005E9BFECF5E9A0895415058F05D9BFCCF53
:1006B000FB0180818CB95E9BFECF5E9A6F5F7F4F9E
:1006C000F3CF08955F9B03C08CB1FB018083089535
:1006D00080917200813019F4109272006CB9089503
:1006E0008091AA00813031F41092AA008091A90073
:1006F000FB01808308951F920F920FB60F92112471
:100700008F9381E0809372008F910F900FBE0F90B6
:100710001F9018951F920F920FB60F9211248F936E
:100720008CB18093A90081E08093AA008F910F90F3
:100730000FBE0F901F90189536DD39DDFFCF80E892
:1007400090E083DE8FE790E00ADE62E08EE790E0E3
:10075000CCDD61E08DE790E0C8DD62E08CE790E001
:100760000ADE61E08BE790E006DE62E38AE790E074
:100770003ACDE2E9F0E081E0808392E09183E0E924
:10078000F0E0808383E081830895E4E9F0E081E094
:10079000808385E081830895E2EAF0E0108281E0C1
:1007A0008183E0EAF0E0108282E08183EEE9F0E00C
:1007B00080838183ECE9F0E0808393E09183EAE930
:1007C000F0E0808394E09183E8E9F0E0808385E0C5
:1007D000818361E087E990E005DF62E086E990E0EF
:1007E00001CF40E069E170E088EA90E04FDFE6EA9F
:1007F000F0E082E080831182E4EAF0E0808381E02F
:1008000081830895A1E21A2EAA1BBB1BFD010DC016
:10081000AA1FBB1FEE1FFF1FA217B307E407F507B0
:1008200020F0A21BB30BE40BF50B661F771F881F8C
:10083000991F1A9469F760957095809590959B0122
:10084000AC01BD01CF010895EE0FFF1F0590F4919B
:08085000E02D0994F894FFCF9C
:1008580036003300300038003500320037003400ED
:0A0868003100014300013E000100D1
:00000001FF
