:1000000013C037C036C035C034C033C032C031C071
:1000100030C02FC02EC02DC02CC02BC02AC029C07C
:1000200028C027C026C0690111241FBECFE5D4E037
:10003000DEBFCDBF10E0A0E6B0E0E8E1F3E002C033
:1000400005900D92A237B107D9F720E0A2E7B0E002
:1000500001C01D92AB37B207E1F710E0C4E1D0E078
:1000600003C02197FE0150D1C331D107D1F715D17B
:1000700051C1C6CFFC016130D1F018F0623059F1A6
:100080000895A081B0E0AA0FBB1FA459BF4F0D90E7
:10009000BC91A02D218181E090E0AC0102C0440F11
:1000A000551F2A95E2F78C91842B8C930895A0819B
:1000B000B0E0AA0FBB1FA459BF4F0D90BC91A02D5B
:1000C000218181E090E001C0880F2A95EAF78095B0
:1000D0009C918923EACFA081B0E0AA0FBB1FA4594D
:1000E000BF4F0D90BC91A02D218181E090E0AC012B
:1000F00002C0440F551F2A95E2F7342F30952C91FA
:1001000023232C93A081B0E0AA0FBB1FAA59BF4F95
:100110000D90BC91A02D218101C0880F2A95EAF78E
:100120009C91892BC2CFDC01662319F06130B9F0B4
:100130000895EC91F0E0EE0FFF1FEA59FF4F019098
:10014000F081E02D11962C9181E090E001C0880FA4
:100150002A95EAF780959081892380830895EC9110
:10016000F0E0EE0FFF1FEA59FF4F0190F081E02D04
:1001700011962C9181E090E0AC0102C0440F551F14
:100180002A95E2F78081842BE8CFDC01EC91F0E046
:10019000EE0FFF1FEA59FF4F0190F081E02D1196FD
:1001A0002C9181E090E0AC0102C0440F551F2A95CC
:1001B000E2F78081842780830895DC01EC91F0E0F0
:1001C000EE0FFF1FE05AFF4F0190F081E02D2081DC
:1001D00030E011968C9102C0359527958A95E2F70B
:1001E00020FF04C081E0FB0180830895DB011C92A5
:1001F0000895FC016083623091F06330F1F061306A
:10020000F9F48EB59FB59F739FBD8EBD8EB59FB51A
:10021000826091689FBD8EBD1BBC1ABC08958EB5CF
:100220009FB59F7C9FBD8EBD8EB59FB5826091624C
:100230009FBD8EBD19BC18BC089582E685BD13BC58
:100240000895FC018081823091F08330F1F081309B
:1002500019F58EB59FB5887F9FBD8EBD8EB59FB5B4
:10026000862B9FBD8EBD50E05BBD4ABD08958EB507
:100270009FB5887F9FBD8EBD8EB59FB5862B9FBDD8
:100280008EBD50E059BD48BD089585B5887F85BDB8
:1002900085B5682B65BD43BD089560E089E790E0B2
:1002A000E9DE60E087E790E0E5DE60E085E790E08A
:1002B000E1DE40E861E084E790E0C3DF42E361E033
:1002C00083E790E0BEDF4BE962E082E790E0B9DFD0
:1002D000FFCFE9E7F0E0108281E08183E7E7F0E01B
:1002E000108282E08183E5E7F0E0108283E0818381
:1002F00061E084E790E07DDF62E083E790E079DF12
:1003000063E082E790E075CFEE0FFF1F0590F49158
:08031000E02D0994F894FFCFE1
:100318003600330030003800350032003700340032
:020328003100A2
:00000001FF
