:1000000013C037C036C035C034C033C032C031C071
:1000100030C02FC02EC02DC02CC02BC02AC029C07C
:1000200028C027C026C00A0111241FBECFE5D4E096
:10003000DEBFCDBF10E0A0E6B0E0E2E3F2E002C038
:1000400005900D92A237B107D9F720E0A2E7B0E002
:1000500001C01D92A437B207E1F710E0C4E1D0E07F
:1000600003C02197FE01DDD0C331D107D1F7C1D044
:10007000DEC0C6CFFC016130D1F018F0623059F11A
:100080000895A081B0E0AA0FBB1FA459BF4F0D90E7
:10009000BC91A02D218181E090E0AC0102C0440F11
:1000A000551F2A95E2F78C91842B8C930895A0819B
:1000B000B0E0AA0FBB1FA459BF4F0D90BC91A02D5B
:1000C000218181E090E001C0880F2A95EAF78095B0
:1000D0009C918923EACFA081B0E0AA0FBB1FA4594D
:1000E000BF4F0D90BC91A02D218181E090E0AC012B
:1000F00002C0440F551F2A95E2F7342F30952C91FA
:1001000023232C93A081B0E0AA0FBB1FAA59BF4F95
:100110000D90BC91A02D218101C0880F2A95EAF78E
:100120009C91892BC2CFDC01662319F06130B9F0B4
:100130000895EC91F0E0EE0FFF1FEA59FF4F019098
:10014000F081E02D11962C9181E090E001C0880FA4
:100150002A95EAF780959081892380830895EC9110
:10016000F0E0EE0FFF1FEA59FF4F0190F081E02D04
:1001700011962C9181E090E0AC0102C0440F551F14
:100180002A95E2F78081842BE8CFDC01EC91F0E046
:10019000EE0FFF1FEA59FF4F0190F081E02D1196FD
:1001A0002C9181E090E0AC0102C0440F551F2A95CC
:1001B000E2F78081842780830895DC01EC91F0E0F0
:1001C000EE0FFF1FE05AFF4F0190F081E02D2081DC
:1001D00030E011968C9102C0359527958A95E2F70B
:1001E00020FF04C081E0FB0180830895DB011C92A5
:1001F000089560E082E790E03DDF82E790E0C5DFB0
:100200002FEF89E698E1215080409040E1F700C04F
:100210000000F3CFE2E7F0E081E0808382E08183B9
:100220000895EE0FFF1F0590F491E02D0994F894C6
:02023000FFCFFE
:100232003600330030003800350032003700340019
:02024200310089
:00000001FF
