:1000000017C03BC03AC039C038C037C036C035C051
:1000100034C033C032C0B5C230C0A4C22EC02DC05F
:100020002CC02BC02AC0D702ED02F9020003250321
:1000300011241FBECFE5D4E0DEBFCDBF10E0A0E6A7
:10004000B0E0ECE7F6E002C005900D92A437B107EE
:10005000D9F720E0A4E7B0E001C01D92A739B207AC
:10006000E1F710E0C8E1D0E003C02197FE01FED225
:10007000C331D107D1F797D2FFC2C2CF08956BE742
:1000800070E089E790E020C180917B00833509F41E
:1000900047C0C8F4823469F140F490ED980F9A306B
:1000A00008F450C010927B0008958C3479F18235A9
:1000B000A9F18634B9F741E060917A0085E790E0D4
:1000C000BAD041E01DC0813709F444C048F48635F8
:1000D00089F1873539F1853529F786E790E024C025
:1000E000863761F1873711F18537E1F686E790E0D1
:1000F0001FC042E060917A0085E790E09CD042E02A
:1001000060917A0084E790E096D0CCCF41E0609196
:100110007A0085E790E08FD043E0F2CF43E0CCCF88
:1001200043E0F5CF87E790E026D0BCCF87E790E0AB
:1001300031D0B8CF88E790E04DD0B4CF88E790E0D9
:100140004DD0B0CF97E1899F802D112480558093A9
:100150007A00A8CF8FEFFBCFFC016083613019F0EC
:10016000623029F0089560E08EE790E0B3C060E06F
:100170008CE790E0FBCFFC018081813019F0823068
:1001800029F0089561E08EE790E0FDC061E08CE722
:1001900090E0FBCFFC018081813019F0823029F0A2
:1001A000089560E08EE790E0EEC060E08CE790E0BC
:1001B000FBCFFC018081813019F0823021F008955D
:1001C0008EE790E012C18CE790E0FCCF60E080E821
:1001D00090E080C061E080E890E0D5C060E080E819
:1001E00090E0D1C0FC016083613019F0623091F081
:1001F000089560E08EE890E06DD060E08AE890E0DD
:1002000069D060E088E890E065D040E062E083E893
:1002100090E047C160E08CE890E05CD060E086E868
:1002200090E058D060E084E890E054D040E062E094
:1002300082E890E0EECFCF93C62FFC018081813021
:1002400021F08230F1F0CF910895423059F04330DF
:1002500091F061E0413081F04C2F62E083E890E062
:10026000CF911FC160E08AE890E08DD061E088E81E
:1002700090E089D0F1CF60E08AE890E084D060E03F
:10028000F6CF423051F0433089F061E0413079F0EF
:100290004C2F62E082E890E0E3CF60E086E890E0F7
:1002A00072D061E084E890E06ED0F2CF60E086E842
:1002B00090E069D060E0F6CF61E082E990E00AD09A
:1002C00060E080E990E006C084E990E032C184E912
:1002D00090E03DC1FC016130D1F018F0623059F17D
:1002E0000895A081B0E0AA0FBB1FA459BF4F0D9085
:1002F000BC91A02D218181E090E0AC0102C0440FAF
:10030000551F2A95E2F78C91842B8C930895A08138
:10031000B0E0AA0FBB1FA459BF4F0D90BC91A02DF8
:10032000218181E090E001C0880F2A95EAF780954D
:100330009C918923EACFA081B0E0AA0FBB1FA459EA
:10034000BF4F0D90BC91A02D218181E090E0AC01C8
:1003500002C0440F551F2A95E2F7342F30952C9197
:1003600023232C93A081B0E0AA0FBB1FAA59BF4F33
:100370000D90BC91A02D218101C0880F2A95EAF72C
:100380009C91892BC2CFDC01662319F06130B9F052
:100390000895EC91F0E0EE0FFF1FEA59FF4F019036
:1003A000F081E02D11962C9181E090E001C0880F42
:1003B0002A95EAF780959081892380830895EC91AE
:1003C000F0E0EE0FFF1FEA59FF4F0190F081E02DA2
:1003D00011962C9181E090E0AC0102C0440F551FB2
:1003E0002A95E2F78081842BE8CFDC01EC91F0E0E4
:1003F000EE0FFF1FEA59FF4F0190F081E02D11969B
:100400002C9181E090E0AC0102C0440F551F2A9569
:10041000E2F78081842780830895DC01EC91F0E08D
:10042000EE0FFF1FE05AFF4F0190F081E02D208179
:1004300030E011968C9102C0359527958A95E2F7A8
:1004400020FF04C081E0FB0180830895DB011C9242
:100450000895FC016083623091F06330F1F0613007
:10046000F9F48EB59FB59F739FBD8EBD8EB59FB5B8
:10047000826091689FBD8EBD1BBC1ABC08958EB56D
:100480009FB59F7C9FBD8EBD8EB59FB582609162EA
:100490009FBD8EBD19BC18BC089582E685BD13BCF6
:1004A0000895FC018081823091F08330F1F0813039
:1004B00019F58EB59FB5887F9FBD8EBD8EB59FB552
:1004C000862B9FBD8EBD50E05BBD4ABD08958EB5A5
:1004D0009FB5887F9FBD8EBD8EB59FB5862B9FBD76
:1004E0008EBD50E059BD48BD089585B5887F85BD56
:1004F00085B5682B65BD43BD089548614AB986E856
:1005000080BD69B970BD08955D9B04C06CB95E9BE8
:10051000FECF5E9A0895415058F05D9BFCCFFB01E1
:1005200080818CB95E9BFECF5E9A6F5F7F4FF3CF69
:1005300008955F9B03C08CB1FB0180830895809177
:100540007200813019F4109272006CB90895809194
:100550009600813031F41092960080919500FB0155
:10056000808308951F920F920FB60F9211248F93DC
:1005700081E0809372008F910F900FBE0F901F90BB
:1005800018951F920F920FB60F9211248F938CB172
:100590008093950081E0809396008F910F900FBE1D
:1005A0000F901F9018956ADD6ADD6EDDFDCF89E73B
:1005B00090E082DE88E790E009DE62E087E790E085
:1005C000CBDD61E086E790E0C7DD62E085E790E0A3
:1005D00009DE61E084E790E005CEEEE7F0E081E03F
:1005E000808392E09183ECE7F0E0808383E0818375
:1005F0000895E0E8F0E081E0808385E0818308955C
:10060000EEE8F0E0108281E08183ECE8F0E0108217
:1006100082E08183EAE8F0E080838183E8E8F0E02B
:10062000808393E09183E6E8F0E0808394E0918317
:10063000E4E8F0E0808385E0818361E083E890E096
:1006400008DF62E082E890E004CF40E063E370E01E
:1006500084E990E052DFE2E9F0E082E080831182F9
:10066000E0E9F0E0808381E081830895EE0FFF1FD1
:0C0670000590F491E02D0994F894FFCF60
:10067C0036003300300038003500320037003400CB
:04068C003100010038
:00000001FF
