:1000000013C037C036C035C034C033C032C031C071
:1000100030C02FC02EC087C12CC076C12AC029C0D5
:1000200028C027C026C0C40111241FBECFE5D4E0DC
:10003000DEBFCDBF10E0A0E6B0E0E8EBF3E002C029
:1000400005900D92AA37B107D9F720E0AAE7B0E0F2
:1000500001C01D92A138B207E1F710E0C4E1D0E081
:1000600003C02197FE01A0D1C331D107D1F76AD1D6
:10007000A1C1C6CFFC016130D1F018F0623059F156
:100080000895A081B0E0AA0FBB1FA459BF4F0D90E7
:10009000BC91A02D218181E090E0AC0102C0440F11
:1000A000551F2A95E2F78C91842B8C930895A0819B
:1000B000B0E0AA0FBB1FA459BF4F0D90BC91A02D5B
:1000C000218181E090E001C0880F2A95EAF78095B0
:1000D0009C918923EACFA081B0E0AA0FBB1FA4594D
:1000E000BF4F0D90BC91A02D218181E090E0AC012B
:1000F00002C0440F551F2A95E2F7342F30952C91FA
:1001000023232C93A081B0E0AA0FBB1FAA59BF4F95
:100110000D90BC91A02D218101C0880F2A95EAF78E
:100120009C91892BC2CFDC01662319F06130B9F0B4
:100130000895EC91F0E0EE0FFF1FEA59FF4F019098
:10014000F081E02D11962C9181E090E001C0880FA4
:100150002A95EAF780959081892380830895EC9110
:10016000F0E0EE0FFF1FEA59FF4F0190F081E02D04
:1001700011962C9181E090E0AC0102C0440F551F14
:100180002A95E2F78081842BE8CFDC01EC91F0E046
:10019000EE0FFF1FEA59FF4F0190F081E02D1196FD
:1001A0002C9181E090E0AC0102C0440F551F2A95CC
:1001B000E2F78081842780830895DC01EC91F0E0F0
:1001C000EE0FFF1FE05AFF4F0190F081E02D2081DC
:1001D00030E011968C9102C0359527958A95E2F70B
:1001E00020FF04C081E0FB0180830895DB011C92A5
:1001F0000895FC016083623091F06330F1F061306A
:10020000F9F48EB59FB59F739FBD8EBD8EB59FB51A
:10021000826091689FBD8EBD1BBC1ABC08958EB5CF
:100220009FB59F7C9FBD8EBD8EB59FB5826091624C
:100230009FBD8EBD19BC18BC089582E685BD13BC58
:100240000895FC018081823091F08330F1F081309B
:1002500019F58EB59FB5887F9FBD8EBD8EB59FB5B4
:10026000862B9FBD8EBD50E05BBD4ABD08958EB507
:100270009FB5887F9FBD8EBD8EB59FB5862B9FBDD8
:100280008EBD50E059BD48BD089585B5887F85BDB8
:1002900085B5682B65BD43BD089588E18AB98AB1EB
:1002A000482B4AB986E880BD69B970BD08955D9B49
:1002B00004C06CB95E9BFECF5E9A0895415058F021
:1002C0005D9BFCCFFB0180818CB95E9BFECF5E9A6B
:1002D0006F5F7F4FF3CF08955F9B03C08CB1FB012D
:1002E0008083089580918000813019F410928000FD
:1002F0006CB9089580917F00813029F410927F00BD
:100300008CB1FB01808308951F920F920FB60F925C
:1003100011248F9381E0809380008F910F900FBE06
:100320000F901F9018951F920F920FB60F921124E5
:100330008F9381E080937F008F910F900FBE0F907D
:100340001F901895CF93DF931F92CDB7DEB7198218
:100350008FB780688FBF61E08DE790E08BDE60E053
:100360008BE790E087DEBE016F5F7F4F8AE790E00A
:10037000B3DF89818823B9F347E062E770E08AE759
:1003800090E09CDF1982EFCFEDE7F0E082E0808320
:100390001182EBE7F0E0808381E0818340E063E35A
:1003A00070E08AE790E079CFEE0FFF1F0590F4919F
:0803B000E02D0994F894FFCF41
:1003B8003600330030003800350032003700340092
:0A03C800310041686D65640D0A0004
:00000001FF
