:1000000017C03BC03AC039C038C037C036C035C051
:1000100034C033C032C089C130C078C12EC02DC0B9
:100020002CC02BC02AC081028C0298029F02C402FD
:1000300011241FBECFE5D4E0DEBFCDBF10E0A0E6A7
:10004000B0E0EAEBF5E002C005900D92A437B107ED
:10005000D9F720E0A4E7B0E001C01D92A239B207B1
:10006000E1F710E0C8E1D0E003C02197FE019DD286
:10007000C331D107D1F721D29EC2C2CFFC0161307A
:10008000D1F018F0623059F10895A081B0E0AA0FC4
:10009000BB1FA459BF4F0D90BC91A02D218181E0C1
:1000A00090E0AC0102C0440F551F2A95E2F78C91F5
:1000B000842B8C930895A081B0E0AA0FBB1FA45994
:1000C000BF4F0D90BC91A02D218181E090E001C037
:1000D000880F2A95EAF780959C918923EACFA08121
:1000E000B0E0AA0FBB1FA459BF4F0D90BC91A02D2B
:1000F000218181E090E0AC0102C0440F551F2A9598
:10010000E2F7342F30952C9123232C93A081B0E07B
:10011000AA0FBB1FAA59BF4F0D90BC91A02D2181E2
:1001200001C0880F2A95EAF79C91892BC2CFDC0188
:10013000662319F06130B9F00895EC91F0E0EE0F0C
:10014000FF1FEA59FF4F0190F081E02D11962C918D
:1001500081E090E001C0880F2A95EAF780959081B0
:10016000892380830895EC91F0E0EE0FFF1FEA5998
:10017000FF4F0190F081E02D11962C9181E090E0ED
:10018000AC0102C0440F551F2A95E2F78081842BF1
:10019000E8CFDC01EC91F0E0EE0FFF1FEA59FF4FD2
:1001A0000190F081E02D11962C9181E090E0AC015E
:1001B00002C0440F551F2A95E2F78081842780836F
:1001C0000895DC01EC91F0E0EE0FFF1FE05AFF4FC5
:1001D0000190F081E02D208130E011968C9102C0D9
:1001E000359527958A95E2F720FF04C081E0FB0151
:1001F00080830895DB011C920895FC0160836230C6
:1002000091F06330F1F06130F9F48EB59FB59F73D2
:100210009FBD8EBD8EB59FB5826091689FBD8EBD1E
:100220001BBC1ABC08958EB59FB59F7C9FBD8EBD2B
:100230008EB59FB5826091629FBD8EBD19BC18BC02
:10024000089582E685BD13BC0895FC01808182304B
:1002500091F08330F1F0813019F58EB59FB5887F2C
:100260009FBD8EBD8EB59FB5862B9FBD8EBD50E0C8
:100270005BBD4ABD08958EB59FB5887F9FBD8EBD7D
:100280008EB59FB5862B9FBD8EBD50E059BD48BD34
:10029000089585B5887F85BD85B5682B65BD43BD4F
:1002A000089548614AB986E880BD69B970BD08956E
:1002B0005D9B04C06CB95E9BFECF5E9A0895415071
:1002C00058F05D9BFCCFFB0180818CB95E9BFECF1B
:1002D0005E9A6F5F7F4FF3CF08955F9B03C08CB131
:1002E000FB018083089580917200813019F410928F
:1002F00072006CB9089580917800813031F41092C9
:10030000780080917700FB01808308951F920F92FF
:100310000FB60F9211248F9381E0809372008F911A
:100320000F900FBE0F901F9018951F920F920FB64F
:100330000F9211248F938CB18093770081E080938A
:1003400078008F910F900FBE0F901F90189561301D
:1003500019F0623029F0089560E08BE790E08ECECE
:1003600060E089E790E0FBCF613019F0623029F05E
:10037000089561E08BE790E0DACE61E089E790E0F4
:10038000FBCF613019F0623029F0089560E08BE70F
:1003900090E0CDCE60E089E790E0FBCF613019F0CE
:1003A000623021F008958BE790E0F3CE89E790E08A
:1003B000FCCF60E08DE790E061CE61E08DE790E0FA
:1003C000B6CE60E08DE790E0B2CEFC016083613094
:1003D00019F0623091F0089560E08BE890E04EDE15
:1003E00060E087E890E04ADE60E085E890E046DE85
:1003F00040E062E080E890E028CF60E089E890E0AB
:100400003DDE60E083E890E039DE60E081E890E086
:1004100035DE40E062E08FE790E0EECFCF93C62F6D
:10042000FC018081813021F08230F1F0CF9108957C
:10043000423059F0433091F061E0413081F04C2F6F
:1004400062E080E890E0CF9100CF60E087E890E044
:100450006EDE61E085E890E06ADEF1CF60E087E87B
:1004600090E065DE60E0F6CF423051F0433089F035
:1004700061E0413079F04C2F62E08FE790E0E3CF0C
:1004800060E083E890E053DE61E081E890E04FDED9
:10049000F2CF60E083E890E04ADE60E0F6CF61E012
:1004A0008FE890E0EBDD60E08DE890E0E7CD81E95A
:1004B00090E013CF81E990E01ECFCF93DF931F929E
:1004C000CDB7DEB7BE016F5F7F4F86E790E0EFDF0D
:1004D0008981863461F441E06FEF85E790E09EDF2B
:1004E00042E060E884E790E099DF1982EBCF823444
:1004F00049F743E060E085E790E090DF43E060E0AB
:10050000F1CF86E790E0CBDF61E085E790E05DDF4B
:1005100062E084E790E059CFEBE7F0E081E0808390
:1005200092E09183E9E7F0E0808383E0818308959E
:10053000EDE7F0E081E0808385E081830895EBE8DA
:10054000F0E0108281E08183E9E8F0E0108282E04F
:100550008183E7E8F0E080838183E5E8F0E0808351
:1005600093E09183E3E8F0E0808394E09183E1E815
:10057000F0E0808385E0818361E080E890E03DDE0B
:1005800062E08FE790E039CE40E063E370E081E91C
:1005900090E087DEEFE8F0E082E080831182EDE812
:1005A000F0E0808381E081830895EE0FFF1F0590C6
:0A05B000F491E02D0994F894FFCFB8
:1005BA00360033003000380035003200370034008E
:0405CA0031000100FB
:00000001FF
